{
  "contractName": "Demo",
  "abi": [
    {
      "inputs": [],
      "payable": false,
      "stateMutability": "nonpayable",
      "type": "constructor"
    },
    {
      "constant": true,
      "inputs": [],
      "name": "balance",
      "outputs": [
        {
          "internalType": "uint256",
          "name": "",
          "type": "uint256"
        }
      ],
      "payable": false,
      "stateMutability": "view",
      "type": "function"
    },
    {
      "constant": false,
      "inputs": [],
      "name": "contribute",
      "outputs": [],
      "payable": true,
      "stateMutability": "payable",
      "type": "function"
    }
  ],
  "bytecode": "0x6080604052348015600f57600080fd5b506000808190555060a7806100256000396000f3fe60806040526004361060265760003560e01c8063b69ef8a814602b578063d7bb99ba146053575b600080fd5b348015603657600080fd5b50603d605b565b6040518082815260200191505060405180910390f35b60596061565b005b60005481565b34600080828254019250508190555056fea265627a7a72315820907c4ab5628833af118912af914bd32eb9913c5f09f30aaf536a91f6a4d5cca464736f6c63430005100032",
  "source": "pragma solidity >=0.4.22 <0.9.0;\r\n\r\ncontract Demo {\r\n    uint public balance;\r\n\r\n    // Initialize global variables\r\n    constructor() public\r\n    {\r\n        balance = 0;\r\n    }\r\n\r\n    // The payable keyword allows this function to accept Ether\r\n    function contribute() public payable\r\n    {\r\n        // msg.value is the value of Ether sent in a transaction\r\n        balance += msg.value;\r\n    }\r\n}",
  "sourcePath": "C:/Users/hungpham/Desktop/dapp/contracts/Demo.sol",
  "compiler": {
    "name": "solc",
    "version": "0.5.16+commit.9c3226ce.Emscripten.clang"
  },
  "schemaVersion": "3.3.4",
  "updatedAt": "2021-03-18T02:22:55.337Z",
  "networkType": "ethereum",
  "devdoc": {
    "methods": {}
  },
  "userdoc": {
    "methods": {}
  }
}